:10000000D8EF20F00000000000EF00F0000000003A
:0A0010000000000000000000F3D71C
:10001C0062C7C9FFC7B002D00000FCD7C9CF00F03F
:02002C001200C0
:10002E00F250026EF29E0500FF6A0150FE6E005005
:08003E00FD6E02BEF28E1200FD
:100046008B92400E07015F11006E82C6E1FF83C6E8
:10005600E2FF00C0E6FF80C600F081C601F0E4DFE3
:1000660082C6E1FF83C6E2FF60C7E6FF80C600F0F6
:1000760081C601F0D9DF82C6E1FF83C6E2FF61C710
:10008600E6FF80C600F081C601F0CEDF8B8212004B
:100096008B9282C6E1FF83C6E2FF7A0EE66E80C6C9
:1000A60000F081C601F0C0DF82C6E1FF83C6E2FF31
:1000B6005CC7E6FF80C600F081C601F0B5DF8B8223
:0200C600120026
:1000C80007015F6B5CC760F75DC761F7B8DF8B92AC
:1000D80082C6E1FF83C6E2FF3A0EE66E80C600F0F4
:1000E80081C601F0A0DF82C6E1FF83C6E2FFE66AAF
:0E00F80080C600F081C601F096DF8B821200F8
:100106008B92A00E07015C11006E82C6E1FF83C6CA
:10011600E2FF00C0E6FF80C600F081C601F084DF82
:1001260082C6E1FF83C6E2FF5DC7E6FF80C600F038
:0A01360081C601F079DF8B82120010
:10014000020E07015F6F5CC760F75DC761F77BDF79
:100150008B9282C6E1FF83C6E2FF7A0EE66E80C60E
:1001600000F081C601F063DF82C6E1FF83C6E2FFD3
:100170005EC7E6FF80C600F081C601F058DF8B82C3
:0201800012006B
:100182008B92800E07015C11006E82C6E1FF83C66E
:10019200E2FF00C0E6FF80C600F081C601F046DF44
:1001A20082C6E1FF83C6E2FF5DC7E6FF80C600F0BC
:0A01B20081C601F03BDF8B821200D2
:1001BC008B9282C6E1FF83C6E2FF5CC7E6FF80C676
:1001CC0000F081C601F02DDF82C6E1FF83C6E2FF9D
:1001DC00E66A80C600F081C601F023DF8B82120034
:1001EC0007015B6B010E545F000E555B58530DE01D
:1001FC005551190802E15451AD0807E25B2BAD0EC5
:10020C00545D596F190E55595A6F5B5305E0AD0E7D
:10021C00016E190E026E04D054C701F055C702F0DE
:10022C005351021802E1015052190DE152C75CF70B
:10023C0053C75DF743DF00C05EF756C75CF757C77F
:10024C005DF778DF36D0100E07015F6F52C760F78D
:10025C0053C761F7F2DE120E07015F6F5B5305E0C7
:10026C00AD0E006E190E016E04D054C700F055C7C8
:10027C0001F000C060F701C061F7DFDE140E07016A
:10028C005F6F56C760F757C761F7D7DE1F0E0701C0
:10029C005C6F100E5D6F31DF1F0E07015C6F200E5F
:1002AC005D6F69DF1F0E07015C6F82DF00AA01D052
:1002BC00F9D707015B531AE05251545D006E53514C
:1002CC005559016E5951005E5A51015A004A012A82
:1002DC000050562701505723010E595D546F000EE4
:0E02EC005A59556F526B536B5B6B8FD71200D4
:1002FA0052C75CF753C75DF754C75EF71CDF55C793
:06030A005CF7C4DE1200E6
:1003100054C704F055C705F052C702F053C703F0A5
:1003200056C700F057C701F0010E0701565F000ED7
:10033000575B005001100FE004C0E9FF05C0EAFF61
:1003400002C0E1FF03C0E2FFEECFE6FF024A032A4C
:10035000044A052AE5D752C700F053C701F012003E
:10036000AE0E07015C6F190E5D6F5E6BE9DEAE0EBF
:1003700007015225006E190E5321016E00C052F77D
:1003800001C053F7060E5F6F00C060F701C061F750
:100390005ADE1F0E07015C6F800E5D6FF2DE1F0ECE
:1003A00007015C6F800E5D6FAEDE06016A51050AC3
:1003B00004E06A51070A01E006D01C0E07015C6FD9
:1003C0000A0E5D6FA0DE1F0E07015C6F080E5D6FE9
:1003D000D8DE06016A51050A04E06A51070A01E005
:1003E00080D00701566B576B1C0E5C6FE7DE0A0E60
:1003F000001600520AE10701564B572B030E575DBA
:1004000002E1E80E565D01E2EFD707011C0E5C6FBA
:10041000D5DE00B208D0030E0701575D02E1E80EF9
:10042000565D01E25DD007011F0E5C6F080E5D6F27
:100430006ADE040E070152255C6F000E53215D6FCA
:1004400043DE00C055F70701546B100E545D48E2BF
:100450001C0E5C6FB3DE00A23FD0070155AB3CD051
:100460001F0E5C6F800E5D6F8CDE1F0E07015C6FD0
:10047000800E5D6F48DE1C0E07015C6F0A0E5D6F1B
:1004800042DE1F0E07015C6F080E5D6F7ADE07010A
:10049000566B576B1C0E5C6F91DE0A0E00160052F5
:1004A0000AE10701564B572B030E575D02E1E80E98
:1004B000565D01E2EFD707011F0E5C6F080E5D6FFE
:1004C00022DE040E070152255C6F000E53215D6F82
:1004D000FBDD00C055F701D003D00701542BB5D781
:1004E00007D007011F0E5C6F69DE00A601D0F9D7A7
:1004F0001D0E07015C6F62DE060E0016005202E060
:0A050000006A02D0010E006E120026
:10050A008B9282C6E1FF83C6E2FF7A0EE66E80C650
:10051A0000F081C601F086DD54C700F055C701F02E
:10052A00010E0701545F000E555B0050011013E0E5
:10053A0082C6E1FF83C6E2FF52C7E9FF53C7EAFF5B
:10054A00EECFE6FF80C600F081C601F06BDD070141
:0A055A00524B532BE1D78B821200A5
:10056400020E07015F6F52C760F753C761F769DD79
:100574008B9282C6E1FF83C6E2FF7A0EE66E80C6E6
:1005840000F081C601F051DD07015651571117E003
:1005940082C6E1FF83C6E2FF54C7E9FF55C7EAFFFD
:1005A400EECFE6FF80C600F081C601F03EDD070114
:1005B400544B552B010E565F000E575BE5D78B82CB
:0205C400120023
:1005C600070154515225566F55515321576F010E4D
:1005D600565F000E575B100E5F6F52C760F753C72A
:1005E60061F72EDD120E07015F6F56C760F757C71A
:1005F60061F726DD1F0E07015C6F300E5D6FBEDDF5
:100606001F0E07015C6FD7DD00AA01D0F9D71200D3
:100616008B9282C6E1FF83C6E2FF7A0EE66E80C643
:1006260000F081C601F000DD82C6E1FF83C6E2FF6D
:1006360053C7E6FF80C600F081C601F0F5DC82C62E
:10064600E1FF83C6E2FF52C7E6FF80C600F081C61F
:0806560001F0EADC8B821200C6
:10065E0007014751FF0A02E1FF0E461906E05F6BE4
:10066E0046C760F747C761F7E7DC8B9282C6E1FFAA
:10067E0083C6E2FF3A0EE66E80C600F081C601F038
:10068E00CFDC48C700F049C701F0010E0701485FF3
:10069E00000E495B0050011014E082C6E1FF83C6D4
:1006AE00E2FFE66A80C600F081C601F0B9DC44C7FD
:1006BE00E1FF45C7E2FF00C0E6FF0701444B452BB3
:0606CE00E0D78B82120050
:1006D4008B9282C6E1FF83C6E2FF3A0EE66E80C6C5
:1006E40000F081C601F0A1DC82C6E1FF83C6E2FF0F
:1006F400E66A80C600F081C601F097DC8B821200A6
:1007040048C701F049C702F0010E0701485F000E17
:10071400495B000E021802E1000E011825E044C7EF
:10072400E9FF45C7EAFFEECF01F046C7D9FF47C747
:10073400DAFF0150DE1813E044C7E9FF45C7EAFFBA
:10074400EECF01F046C7E9FF47C7EAFFEECF00F05E
:100754000050015C006E016A000E015A1200444B05
:0E076400452B464B472BCCD7006A016A12008A
:100772000B6A0A6A096A00500402F4CF09F0F3CF47
:1007820008F001500502F4CF0BF0F3CF0AF000504D
:100792000502F3500926F4500A22E86A0B2201509E
:1007A2000402F3500926F4500A22E86A0B2208C018
:1007B20000F009C001F00AC002F00BC003F0120001
:1007C20044C752F745C753F76F0E0701546F060E21
:1007D200556F040E566F000E576F99DD466B4651EA
:1007E200030821E346514425026E000E4521036EA3
:1007F20002C0E9FF03C0EAFFEECF01F06B0EE96E23
:10080200060EEA6E4651E926D8B0EA2AFF0EEE1825
:10081200006E0150001202C0E1FF03C0E2FF00C0FF
:08082200E6FF462BDCD71200B3
:10082A00020E0C6E010E0D6E0D2EFED70C2EFCD78D
:06083A00000000001200A6
:10084000070E0C6E760E0D6E0D2EFED70C2EFCD7FD
:040850000000120092
:0A085400490E0D6E0D2EFED71200A6
:10085E0007014451390806E3300E445D03E3010EEF
:08086E00006E01D0006A1200C7
:0C087600A60E0D6E0D2EFED70000120025
:10088200086A080E0C6E003408360450085ED8B0B0
:0E08920002D00826D89000360C2EF5D71200A2
:1008A0008B9282C6E1FF83C6E2FF7A0EE66E80C6B7
:1008B00000F081C601F017EC00F047C700F048C710
:1008C00001F0010E0701475F000E485B0050011068
:1008D0001CE082C6E1FF83C6E2FF44C7F6FF45C7BE
:1008E000F7FF46C7F8FF0900F5CF00F000C0E6FFAC
:1008F00080C600F081C601F017EC00F0010E070180
:0E0900004427000E45234623D8D78B821200D1
:10090E00AF0E0701526F190E536F44C754F745C708
:10091E0055F7060E566F000E576F1DDE5C0E526FAA
:10092E00060E536F060E546F000E556FE7DD000E68
:10093E00526F080E536F68DE1C0E07014C254F6F69
:10094E00000E4D21506F000E526F450E536F5CDE40
:10095E004FC752F750C753F757DE99C652F79AC68C
:10096E0053F752DE0601994B9A2B0701526B536BCC
:10097E004BDE110E0701526F800E536F45DE0701DD
:10098E00526B536B41DE6F0E0701526F060E536FA3
:10099E00040E546F000E556FB1DD46C752F747C7B0
:1009AE0053F7040E546F000E556FA8DD080E4C253C
:1009BE004F6F000E4D21506F48C752F749C753F77E
:1009CE0023DE4AC752F74BC753F71EDE4FC752F707
:1009DE0050C753F719DE0701526B536B15DEBD0E70
:1009EE000701526F190E536F140E546F000E556F90
:1009FE00E3DD160E07015C6FDEEC00F000C051F770
:100A0E00170E07015C6FDEEC00F000C054F7C70E46
:100A1E000701526F190E536F51C755F767DC010E60
:100A2E0007014F154E6FD90E4C255C6F190E4D21D7
:100A3E005D6F5E6BA0EC00F0C90E0701526F190ED0
:100A4E00536FD10E546F190E556FD90E4C25566F2C
:100A5E00190E4D21576F4E515627000E5723586BC6
:100A6E00F6EC00F0D90E4C25526F190E4D21536F36
:100A7E004E515227000E5323080E5227000E5323B9
:100A8E00546B110E556F32DC50C75CF74BEC00F017
:100A9E004FC75CF74BEC00F0D10E0701526F190EE9
:100AAE00536F0C0E4F25546F000E5021556F4E5143
:100ABE005427000E552380DD160E07015C6FDEEC09
:100ACE0000F000C051F7170E07015C6FDEEC00F06E
:100ADE0000C054F7D70E0701526F190E536F51C74E
:100AEE0055F704DC2A0E07014C25526F000E4D21DE
:060AFE00536F2FDC120013
:0A0B0400030E0D6E0D2EFED7120039
:100B0E000FEE83F0EF50EFCF00F0009600C0EFFF36
:020B1E001200C3
:100B20000FEE83F0EF50EFCF00F0009400C0EFFF26
:020B30001200B1
:100B3200086A096A100E0C6E013408360936045030
:100B4200085E0550D8A0053C095ED8B007D0045015
:100B520008260550D8B0053C0926D8900036013643
:060B62000C2EEAD7120080
:100B680007013F6B406B8B9282C6E1FF83C6E2FFB1
:100B78007A0EE66E80C600F081C601F017EC00F030
:100B88003CC700F03DC701F007013C4B3D2B00C0BE
:100B9800E9FF01C0EAFFEECF00F000C03EF70052C7
:100BA80010E082C6E1FF83C6E2FF3EC7E6FF80C6CB
:100BB80000F081C601F017EC00F007013F4B402B15
:0E0BC800DFD78B823FC700F040C701F012005C
:100BD60007013E6B3C0E0601546F000E556F566FB3
:100BE600576F75DD00C03CF70050020AD8A419D132
:100BF60007013D6B0F0E3D5D04E269DD07013D2BEC
:100C0600F9D7580E446F060E456FFF0E466FFF0E5E
:100C1600476F040E486F000E496F1EDD3D6B080ED0
:100C26003D5D04E254DD07013D2BF9D73D6B060E11
:100C36003D5D12E24CDD00C03CF75C0ED96E060E3F
:100C4600DA6E07013D51D926D8B0DA2A0050DE18EF
:100C560001E011D13D2BEBD73D6BCE0E3D5D04E29D
:100C660036DD07013D2BF9D73F6B31DD00C03CF780
:100C7600B9D02DDD00C03CF70050010A04E127DDA4
:100C860000C03EF701D0F7D0C8D021DD00C03CF748
:100C96000050040A0FE1660E0701446F060E456F09
:100CA600FF0E466FFF0E476F040E486F000E496F2A
:100CB600D3DC01D0E0D0B1D00ADD00C03CF7040E91
:100CC600005C0FE3620E0701446F060E456FFF0ED0
:100CD600466FFF0E476F040E486F000E496FBCDC6F
:100CE60001D0C9D00701040E3C5F07013CC700F0E4
:100CF6003C07005202E0EBDCF8D78FD0E8DC00C0FE
:100D06003CF7040E005C0FE3500E0701446F060E1D
:100D1600456FFF0E466FFF0E476F040E486F000EBD
:100D2600496F9ADC01D0A7D00701040E3C5F07018A
:100D36003CC700F03C07005202E0C9DCF8D76DD092
:100D4600C6DC00C03CF70050040A0FE1400E070164
:100D5600446F070E456FFF0E466FFF0E476F040E7A
:100D6600486F000E496F78DC01D085D056D0070158
:100D7600010E3F6F52D0ABDC00C03CF70050040AB6
:100D860023E1540E0701446F060E456FFF0E466FB2
:100D9600FF0E476F040E486F000E496F5DDC0601BB
:100DA6005751000808E15651000805E1555107085A
:100DB60002E15451080807E2080E545F070E555B1E
:100DC600000E565B575B01D056D027D080DC00C0A2
:100DD6003CF73CC700F007013C07005202E077DC15
:100DE600F8D71BD007013C51350AD8B442D73C513D
:100DF600010AD8B44AD73C51030AD8B45DD73C514E
:100E0600060AD8B47BD73C51360A9AE03C51FF0A11
:100E1600AEE03C51330AAFE0D9D707013F53D8B40F
:100E260024D707013E51020A0FE1480E526F060E03
:100E3600536F400E546F070E556F040E566F000E1B
:100E4600576F88EC01F014D0480E446F060E456FBC
:100E5600400E466F070E476F040E486F000E496F2F
:100E66004EDC000E011802E1000E0018D8A43E6BFD
:0A0E76003EC700F01200006A1200EF
:100E80004FDE95943FDE3EDE95860601989183B64F
:100E900004D098A101D001D0FAD734DE33DE32DE9F
:100EA00031DE30DE2FDE2EDE2DDE95842BDE2ADED7
:020EB00012002E
:100EB200958427DE26DE958624DE23DE30DE9594B9
:0A0EC20020DE1FDE23DE95961200ED
:100ECC0007013C517A0804E3610E3C5DD8B03C9BB1
:060EDC003CC700F012000B
:100EE2006B0E0701526F060E536F3CC754F73DC796
:100EF20055F7040E566F000E576F88EC01F07C0E0A
:100F0200526F060E536F3EC754F73FC755F7040E94
:100F1200566F000E576F88EC01F0780E526F060E76
:100F2200536F40C754F741C755F7040E566F000E72
:100F3200576F88EC01F0740E446F060E456F40DC6B
:020F420012009B
:100F44000701406B050E405D0AE240513E25E16E0B
:100F5400000E3F21E26E200EE66E402BF3D7405187
:100F64003E25E16E000E3F21E26EE66A40074051E5
:100F74003E25416F000E3F21426F0A0E046E000EA3
:100F8400056E3CC700F03DC701F0D1DD08C000F09C
:100F940009C001F0300E002641C7E1FF42C7E2FF5D
:100FA40000C0E6FF0A0E046E000E056E3CC700F09A
:100FB4003DC701F0BCDD00C03CF701C03DF7000EA9
:100FC400011802E1000E001801E102D04007CFD75A
:020FD400120009
:100FD6003CC7E9FF3DC7EAFFEECF3EF7000E07012B
:100FE6003F6F000E3F6F000E3F1902E1200E3E19C3
:100FF60007E0000E3F1902E1090E3E1901E003D099
:101006003C4B3D2BE5D7406B416B426B436B000E6F
:101016003F1902E12D0E3E1905E1424B432B3C4B95
:101026003D2B08D0000E3F1902E12B0E3E1902E1BE
:101036003C4B3D2B3CC7E9FF3DC7EAFFEECF3EF7F1
:10104600000E3F6F000E3F6F3EC744F705DC0052AF
:1010560019E040C700F041C701F00A0E046E000E09
:10106600056EB9EC03F0300E3E5D026E000E3F5980
:10107600036E02500024406F03500120416F3C4B29
:101086003D2BD8D74251431108E040510008006E6D
:1010960041C701F0000E0156120040C700F041C7DB
:0410A60001F0120043
:1010AA00F90E07013F6F000E406F020E5F6FD90EF7
:1010BA00606F190E616F23EC00F0A00E0701446FF8
:1010CA005A0E456F000E466F0C0E476F000E486FA2
:1010DA0050EC04F03C51030A0DE13D530BE0580E6D
:1010EA00526F060E536F040E546F000E556F85EC47
:1010FA0002F00AD03E6B040E3E5D06E25C6B4BECDE
:10110A0000F007013E2BF7D73E6B0C0E3E5D06E260
:10111A005C6B4BEC00F007013E2BF7D75C0E526F6D
:10112A00060E536F060E546F000E556F85EC02F0D3
:10113A003E6BCA0E3E5D06E25C6B4BEC00F00701AB
:10114A003E2BF7D7980E446F5B0E456F000E466F25
:10115A00060E476F000E486F50EC04F03CC75CF770
:10116A004BEC00F007013C51030A1AE13D5318E128
:10117A00360E5C6F4BEC00F0040E07015C6F4BEC13
:10118A0000F0480E0701526F060E536F040E546F9B
:10119A00000E556F85EC02F0060E3F27000E402325
:1011AA00AA0E446F5B0E456F000E466F050E476F21
:1011BA00000E486F50EC04F03C51030A23E13D5302
:1011CA0021E1320E5C6F4BEC00F0040E07015C6FFC
:1011DA004BEC00F007013E6B040E3E5D0FE2580E29
:1011EA00E96E060EEA6E3E51E926D8B0EA2AEECF3B
:1011FA005CF74BEC00F007013E2BEED7060E3F27BB
:10120A00000E4023FF0E5C6F4BEC00F0470E070107
:10121A00446F000E456F470E466F000E476F440E2F
:10122A00486F000E496F430E4A6F000E4B6F3FC75F
:0C123A004CF740C74DF787EC04F01200A1
:101246003EC701F0010E006E015004E0003600902A
:10125600FF0FFBD700C042F7001C0701416F406B30
:101266003CC7E9FF3DC7EAFF3F6B3F51070822E352
:101276004151EF16120EE9264151EF1640DC42515C
:10128600EF123DDC120EE95E4251EF14006E0CE0E7
:101296003FC701F0010E006E015004E000360090D9
:1012A600FF0FFBD7005040133BEC04F03BEC04F07F
:0A12B6003F2BDBD740C700F0120009
:1012C00007013F6B030E3F5D0AE23F513D25E16E92
:1012D000000E3E21E26E200EE66E3F2BF3D73F510B
:1012E0003D25E16E000E3E21E26EE66A3F073F516A
:1012F0003D25406F000E3E21416F0A0E046E3CC733
:1013000000F041EC04F008C000F0300E002640C7A9
:10131000E1FF41C7E2FF00C0E6FF0A0E046E3CC7D2
:1013200000F041EC04F000C03CF70050000A01E17D
:0813300002D03F07DCD71200D8
:101338003CC702F03DC703F03FC700F040C701F0CB
:10134800010E07013F5F000E405B0050011009E0ED
:1013580002C0E1FF03C0E2FF3EC7E6FF024A032ADC
:0C136800EBD73CC700F03DC701F01200BD
:10137400C26A070EC012C08E3CC700F0003600904F
:10138400003600900050C212C2802AEC04F0C282DF
:10139400C2A201D0FDD7C4CF01F0006AC35000122D
:0813A400000E0112C2901200BC
:1013AC0007013E6B3F6B800E406F000E416F40514A
:1013BC00411125E082EC05F082EC05F0958482EC7D
:1013CC0005F082EC05F095860601989183B604D061
:1013DC0098A101D001D0FAD783A405D007014051C0
:1013EC003E1341513F13070182EC05F082EC05F0EE
:1013FC0087EC05F0959641334033419FD8D79584BF
:10140C0082EC05F082EC05F03C513D1103E090ECD0
:10141C0005F0959482EC05F082EC05F095860601BA
:10142C00989183B604D098A101D001D0FAD782EC60
:10143C0005F082EC05F087EC05F0959682EC05F052
:10144C0082EC05F090EC05F095943EC700F012008C
:10145C00010E07013F6F000E406F800E3D6F000EB6
:10146C003E6F3D513E112FE082EC05F082EC05F011
:10147C0082EC05F082EC05F087EC05F0959682EC99
:10148C0005F082EC05F03D513C15006E000E3E154A
:10149C00016E0050011002E0958403D090EC05F031
:1014AC00959482EC05F082EC05F0958606019891F6
:1014BC0083B604D098A101D001D0FAD707013E33EE
:1014CC003D333E9FCED73F6B406B82EC05F082ECF8
:1014DC0005F087EC05F0959682EC05F082EC05F0B2
:1014EC00958482EC05F082EC05F082EC05F082EC40
:1014FC0005F095860601989183B604D098A101D089
:10150C0001D0FAD707013F6B406B82EC05F082ECFF
:10151C0005F083B43F8182EC05F082EC05F082EC9F
:10152C0005F082EC05F082EC05F082EC05F082EC23
:10153C0005F082EC05F082EC05F082EC05F082EC13
:10154C0005F082EC05F082EC05F082EC05F082EC03
:10155C0005F082EC05F087EC05F0959690EC05F023
:08156C0095943FC700F0120046
:101574003EC701F0010E006E015004E000360090F9
:10158400FF0FFBD700C040F7001E3CC7E9FF3DC773
:10159400EAFF0050EF16120EE9260050EF1620EC79
:1015A40004F007014051EF12120EE95E15EC04F04D
:1015B4004051EF143F6F3F51000A000ED8A4010EB2
:0C15C4003F6F20EC04F03FC700F0120065
:1015D0000701406B416B8B9282C6E1FF83C6E2FF3D
:1015E0007A0EE66E80C600F081C601F017EC00F0BE
:1015F0003CC700F03DC701F03EC702F0010E0701F5
:101600003C27000E3D233E2300C0F6FF01C0F7FF3C
:1016100002C0F8FF0900F5CF00F000C03FF700520C
:1016200010E082C6E1FF83C6E2FF3FC7E6FF80C647
:1016300000F081C601F017EC00F00701404B412B90
:0E164000D7D78B8240C700F041C701F01200DF
:10164E003EC701F0010E006E015004E0003600901E
:10165E00FF0FFBD700C042F7001E00C041F73CC78A
:10166E00E9FF3DC7EAFF0050EF16120EE92607010B
:10167E00406B4051070816E340C700F03FC701F02A
:10168E00005004E00132019EFF0FFBD74151EF16CF
:10169E0001A002D04251EF1215EC04F04251EF12AC
:1016AE00402BE7D7120EE95E3BEC04F03BEC04F066
:0216BE00120018
:1016C00007013D6B3C5109081DE20A0E046E3CC740
:1016D00000F041EC04F000C03DF700C03DF73D379D
:1016E0003D913D373D913D373D913D373D910A0E4E
:1016F000046E3CC700F041EC04F008C000F000505C
:0E1700003D1302D03CC73DF73DC700F012007C
:10170E00B50E0701526F190E536FBB0E546F190EA3
:10171E00556FAF0E566F190E576F586BF6EC00F0F3
:10172E00B50E526F190E536F5C0E546F060E556F39
:0E173E00060E566F000E576FB2EC02F012004E
:10174C0007012F51190802E12E51AD0804E2AE0E2B
:10175C002E5F190E2F5B5F6B2EC760F72FC761F7DB
:06176C0023EC00F0120066
:101772008B92400E07012E11006E82C6E1FF83C6D6
:10178200E2FF00C0E6FF80C600F081C601F017EC60
:1017920000F082C6E1FF83C6E2FF2FC7E6FF80C6E4
:0E17A20000F081C601F017EC00F08B821200FF
:1017B00007012E6BC80E2E5D06E220EC04F020EC33
:0817C00004F02E2BF7D71200F4
:1017C80007015C6BDEEC00F000C033F7010E070187
:1017D8005C6FDEEC00F000C034F707015F6B2EC7CA
:1017E80060F72FC761F723EC00F08B9282C6E1FF08
:1017F80083C6E2FF3A0EE66E80C600F081C601F0AD
:1018080017EC00F00701325318E082C6E1FF83C6E7
:10181800E2FFE66A80C600F081C601F017EC00F02E
:1018280030C7D9FF31C7DAFF0050DE1801E005D014
:101838000701304B312B3207E5D707018B825F6BED
:1018480033C760F734C761F723EC00F032C700F004
:0218580012007C
:10185A006AEC03F06AEC03F06AEC03F000C02FF7BD
:10186A006AEC03F000C02EF76AEC03F000C031F70F
:10187A006AEC03F000C030F76AEC03F000C033F7FB
:10188A006AEC03F000C032F76AEC03F06AEC03F08A
:10189A006AEC03F06AEC03F030C700F031C701F0DC
:1018AA00010E0701305F000E315B005001100EE09F
:1018BA006AEC03F0005201E0FBD76AEC03F06AEC31
:1018CA0003F06AEC03F06AEC03F0E6D732C700F0E3
:1018DA0033C701F0010E0701325F000E335B00507F
:1018EA00011048E06AEC03F06AEC03F06AEC03F0DA
:1018FA0000C037F76AEC03F000C036F76AEC03F071
:10190A006AEC03F06AEC03F06AEC03F06AEC03F0A9
:10191A006AEC03F06AEC03F000C035F76AEC03F0F6
:10192A0000C034F7000E0701371902E1010E36191B
:10193A0011E16AEC03F000C086F66AEC03F000C01D
:10194A0087F66AEC03F000C088F66AEC03F000C080
:10195A0089F610D034C700F035C701F0010E07012F
:10196A00345F000E355B0050011003E06AEC03F0AF
:06197A00F1D7ACD712000A
:10198000C90E0701526F190E536FCD0E546F190E09
:10199000556FCD0E566F190E576F586BF6EC00F061
:1019A000C90E526F190E536F6F0E546F060E556F9E
:0E19B000040E566F000E576FB2EC02F01200DC
:1019BE002EC7E9FF2FC7EAFFEECF3CF7A40E0701B3
:1019CE003D6F060E3E6F75DC2E0E0601A76F010EE3
:1019DE0007012E25E96E000E2F21EA6EEECF3CF7A1
:1019EE00A80E3D6F060E3E6F64DC2E0E0601AB6F29
:1019FE00020E07012E25E96E000E2F21EA6EEECFA4
:101A0E003CF7AC0E3D6F060E3E6F53DC2E0E0601FC
:101A1E00AF6F030E07012E25E96E000E2F21EA6E21
:101A2E00EECF3CF7B00E3D6F060E3E6F42DC3A0E27
:101A3E000601B36F30C73CF731C73DF7B40E07014F
:101A4E003E6F060E3F6FA2EC07F05B0E0601B96FFC
:101A5E0032C73CF733C73DF7BA0E07013E6F060E8D
:101A6E003F6FA2EC07F05D0E0601BF6FC06B1C0E40
:101A7E0007013425386F000E3521396FA40E526FD1
:101A8E00060E536F1C0E546F000E556F85EC02F050
:101A9E00070134C700F035C701F0010E345F000EA8
:101AAE00355B005001100BE06AEC03F000C03CF710
:101ABE0066EC07F000C05CF74BEC00F0E9D738C7D6
:081ACE0000F039C701F012001D
:101AD60006019F6B8F6B8C6B000E0701331902E1B9
:101AE600500E321903E0006A016A1200386B396B36
:101AF600000E395D02E1140E385D12E2D60E38256D
:101B06003A6F060E39213B6F6AEC03F03AC7E1FFE4
:101B16003BC7E2FF00C0E6FF0701384B392BE8D789
:101B2600D60E3825E16E060E3921E26EE66A386B6E
:101B3600396BD60E446F060E456F5E0E466F000E6D
:101B4600476F050E486F000E496F82EC03F0005098
:101B5600011003E0006A016A12000601DB51740AF3
:101B6600D8A49ED0DCC68AF6DDC68BF6DEC68DF618
:101B7600DFC68EF6E0C69DF6E1C69EF6E2C6D3F651
:101B8600E3C6D4F6E4C6D0F6E5C6D1F6E6C6CDF68B
:101B9600E7C6CEF659EC07F0A00E07013C6F5BDCFA
:101BA6003C6B59DC800E3C6F56DC40EC07F059EC80
:101BB60007F0A00E07013C6F4EDC3C6B4CDC800E40
:101BC6003C6F49DC3C6B47DC9D0E3C6F060E3D6F5F
:101BD600EBEC07F000C03CF770DD00C03CF73BDCE7
:101BE6008D0E3C6F060E3D6FEBEC07F000C03CF728
:101BF60064DD00C03CF72FDC8A0E3C6F060E3D6F9D
:101C0600EBEC07F000C03CF758DD00C03CF723DCE6
:101C1600D30E3C6F060E3D6FEBEC07F000C03CF7B1
:101C26004CDD3F0E00143A6FCD0E3C6F060E3D6F35
:101C3600EBEC07F000C03CF740DD030E0014026E2B
:101C4600060E016E02C000F0015004E0003600905E
:101C5600FF0FFBD7070100503A113C6F2EEC0AF03C
:101C6600D00E3C6F060E3D6FEBEC07F000C03CF764
:101C760024DD00C03CF72EEC0AF040EC07F059ECEE
:101C860007F0A00E07013C6F2EEC0AF03C6B2EEC21
:101C96000AF03C6B2EEC0AF040EC07F0B9EF14F0BA
:101CA6000601DB51730AD8A442EF14F05A0E07015D
:101CB6003C6F5A0E3D6F000E3E6F87DC00C038F752
:101CC60001C039F7930E3C6F5A0E3D6F000E3E6F02
:101CD6007CDC0050382701503923020E0C6E8D0E25
:101CE6000D6E0D2EFED70C2EFCD700000000030E45
:101CF6003C6FBAEC09F000C0CBF601C0CCF600C0D0
:101D060002F001C003F002360290033602C0CBF6A1
:101D160003C0CCF602C03CF703C03DF7A40E070192
:101D26003E6F060E3F6FA2EC07F02A0E3C6F5B0E6D
:101D36003D6F000E3E6F49DC0050382701503923B5
:101D4600A40E3C6F060E3D6FB4EC05F0005038272C
:101D560001503923D40E3C6F5B0E3D6F000E3E6F73
:101D660034DC0050382701503923840E3C6F0F0EA7
:101D76003D6F020E3E6FBAEC0AF0840E3C6F0F0EFA
:101D86003D6F020E3E6FCC0E3F6F5EDC840E3C6FE5
:101D96000F0E3D6F020E3E6F440E3F6F55DC020E76
:101DA6000C6E8D0E0D6E0D2EFED70C2EFCD7000080
:101DB6000000840E3C6F0F0E3D6F020E3E6FBAECB4
:101DC6000AF0840E3C6F0F0E3D6F020E3E6FCC0E76
:101DD6003F6F3ADC840E3C6F0F0E3D6F020E3E6F76
:101DE600BE0E3F6F31DC020E0C6E8D0E0D6E0D2E8B
:101DF600FED70C2EFCD700000000840E3C6F0F0EA1
:101E06003D6F020E3E6F23EC09F000C0C1F6000ED6
:101E16000601C26F840E07013C6F0F0E3D6F020E66
:101E26003E6F23EC09F000C005F0046A0601C151BB
:101E36000424026EC2510520036E02C0C1F603C01F
:101E4600C2F603AE09D0010EA06F000EA16FC11F2E
:101E5600C21FC14BC22B02D0A06BA16BC1C600F042
:101E6600C2C601F001320032019E01320032019EEB
:101E760001320032019E01320032019E00C0A2F6FC
:101E860001C0A3F60A0E046E000E056E99EC05F06D
:101E96000A0E046E000E056E99EC05F008C000F0FF
:101EA60009C001F000C0C7F601C0C8F60A0E046EEC
:101EB600000E056EA2C600F0A3C601F099EC05F06F
:101EC60008C000F009C001F000C0C9F601C0CAF69A
:101ED600C1C6C3F6C2C6C4F60A0E046E000E056E6F
:101EE600C1C600F0C2C601F099EC05F008C000F0CA
:101EF60009C001F000C0C5F601C0C6F60A0E046EA0
:101F0600000E056EC3C600F0C4C601F099EC05F0DC
:101F16000A0E046E000E056E99EC05F008C000F07E
:101F260009C001F000C084F601C085F6000EA119B3
:101F360002E1010EA0190EE1860E07013C6F5A0E52
:101F46003D6F000E3E6FE8EC0AF000503827015056
:101F560039230DD00701790E3C6F5A0E3D6F000EE6
:101F66003E6FE8EC0AF00050382701503923C7C607
:101F76003CF7C8C63DF7A40E3E6F060E3F6FA2ECB7
:101F860007F0180E3C6F5B0E3D6F000E3E6FE8ECDF
:101F96000AF00050382701503923A40E3C6F060E74
:101FA6003D6FB4EC05F00050382701503923D60EAA
:101FB6003C6F5B0E3D6F000E3E6FE8EC0AF0005082
:101FC600382701503923C9C63CF7CAC63DF7A40EC7
:101FD6003E6F060E3F6FA2EC07F04E0E3C6F5B0E97
:101FE6003D6F000E3E6FE8EC0AF0005038270150B6
:101FF6003923A40E3C6F060E3D6FB4EC05F000507D
:10200600382701503923D20E3C6F5B0E3D6F000E10
:102016003E6FE8EC0AF00050382701503923C5C658
:102026003CF7C6C63DF7A40E3E6F060E3F6FA2EC08
:1020360007F0780E3C6F5B0E3D6F000E3E6FE8ECCE
:102046000AF00050382701503923A40E3C6F060EC3
:102056003D6FB4EC05F00050382701503923CE0E01
:102066003C6F5B0E3D6F000E3E6FE8EC0AF00050D1
:1020760038270150392384C63CF785C63DF7A40EA0
:102086003E6F060E3F6FA2EC07F03C0E3C6F5B0EF8
:102096003D6F000E3E6FE8EC0AF000503827015005
:1020A6003923A40E3C6F060E3D6FB4EC05F00050CC
:1020B600382701503923D00E3C6F5B0E3D6F000E62
:1020C6003E6FE8EC0AF0005038270150392359ECEE
:1020D60007F0A00E3C6F2EEC0AF0020E3C6F2EECC1
:1020E6000AF059EC07F0A10E3C6F2EEC0AF0010E37
:1020F6003C6F000E3D6FD6EC09F000C00CF6000EEA
:1021060006010D6F010E07013C6F000E3D6FD6EC08
:1021160009F000C00EF6000E06010F6F010E070152
:102126003C6F000E3D6FD6EC09F03F0E0014060121
:10213600106F116B000E1117000E116F010E0701C3
:102146003C6F000E3D6FD6EC09F000C006F6000E9F
:102156000601076F07013C6B3D6BD6EC09F000C02A
:1021660008F6000E0601096F40EC07F0F00E0601B6
:102176000C15036E0DC604F0000E041603C000F025
:1021860004C001F001320032019E01320032019E8C
:1021960001320032019E01320032019E0A0E046EA7
:1021A600000E056EB9EC03F00F0E0C15026E0DC68F
:1021B60003F0000E0316025000240C6F035001209A
:1021C6000D6FF00E0E15036E0FC604F0000E04160A
:1021D60003C000F004C001F001320032019E01325A
:1021E6000032019E01320032019E01320032019E10
:1021F6000A0E046E000E056EB9EC03F00F0E0E15F6
:10220600026E0FC603F0000E0316025000240E6F76
:10221600035001200F6FF00E1015036E11C604F067
:10222600000E041603C000F004C001F001320032B3
:10223600019E01320032019E01320032019E0132BE
:102246000032019E0A0E046E000E056EB9EC03F014
:102256000F0E1015026E11C603F0000E0316025083
:102266000024106F03500120116FC00E06150A6F6F
:1022760007C60BF6000E0B17060E006E005005E0A3
:102286000B330A330B9FFF0FFAD7300E0615036E7A
:1022960007C604F0000E041603C000F004C001F0E7
:1022A60001320032019E01320032019E01320032BB
:1022B600019E01320032019E0A0E046E000E056E6A
:1022C600B9EC03F00F0E0615026E07C603F0000EFA
:1022D600031602500024066F03500120076F100EEC
:1022E6000815036E09C604F0000E041603C000F0BC
:1022F60004C001F001320032019E01320032019E1B
:1023060001320032019E01320032019E0A0E046E35
:10231600000E056EB9EC03F00F0E0815026E09C625
:1023260003F0000E031602500024086F035001202C
:10233600096F10C63CF711C63DF7A40E07013E6FA4
:10234600060E3F6FA2EC07F0800E3C6F5B0E3D6FF2
:10235600000E3E6FE8EC0AF0005038270150392392
:10236600A40E3C6F060E3D6FB4EC05F00050382706
:1023760001503923D80E3C6F5B0E3D6F000E3E6F49
:10238600E8EC0AF000503827015039230EC63CF716
:102396000FC63DF7A40E3E6F060E3F6FA2EC07F088
:1023A600700E3C6F5B0E3D6F000E3E6FE8EC0AF060
:1023B6000050382701503923A40E3C6F060E3D6F9E
:1023C600B4EC05F00050382701503923E00E3C6F7D
:1023D6005B0E3D6F000E3E6FE8EC0AF000503827AA
:1023E600015039230CC63CF70DC63DF7A40E3E6FCF
:1023F600060E3F6FA2EC07F0600E3C6F5B0E3D6F62
:10240600000E3E6FE8EC0AF00050382701503923E1
:10241600A40E3C6F060E3D6FB4EC05F00050382755
:1024260001503923E20E3C6F5B0E3D6F000E3E6F8E
:10243600E8EC0AF0005038270150392306C63CF76D
:1024460007C63DF7A40E3E6F060E3F6FA2EC07F0DF
:10245600680E3C6F5B0E3D6F000E3E6FE8EC0AF0B7
:102466000050382701503923A40E3C6F060E3D6FED
:10247600B4EC05F00050382701503923DE0E3C6FCE
:102486005B0E3D6F000E3E6FE8EC0AF000503827F9
:102496000150392308C63CF709C63DF7A40E3E6F26
:1024A600060E3F6FA2EC07F0880E3C6F5B0E3D6F89
:1024B600000E3E6FE8EC0AF0005038270150392331
:1024C600A40E3C6F060E3D6FB4EC05F000503827A5
:1024D60001503923DA0E3C6F5B0E3D6F000E3E6FE6
:1024E600E8EC0AF000503827015039230AC63CF7B9
:1024F6000BC63DF7A40E3E6F060E3F6FA2EC07F02B
:10250600900E3C6F5B0E3D6F000E3E6FE8EC0AF0DE
:102516000050382701503923A40E3C6F060E3D6F3C
:10252600B4EC05F00050382701503923DC0E3C6F1F
:102536005B0E3D6F000E3E6FE8EC0AF00050382748
:1025460001503923010E3C6FBAEC09F000C012F6B7
:1025560001C013F6030E015C02E1E80E005C06E31F
:10256600640E0601126F000E136F0ED00A0E046E73
:10257600000E056E12C600F013C601F099EC05F0C8
:1025860000C012F601C013F612C63CF713C63DF79B
:10259600A40E07013E6F060E3F6FA2EC07F0210E58
:1025A6003C6F5B0E3D6F000E3E6FE8EC0AF000508C
:1025B600382701503923A40E3C6F060E3D6FB4EC4C
:1025C60005F00050382701503923C20E3C6F5B0ED0
:1025D6003D6F000E3E6FE8EC0AF0005038270150C0
:1025E60039230F0E3C6F5B0E3D6F000E3E6FE8EC1D
:1025F6000AF0005038270150392370D00701A40E85
:102606003C6F5B0E3D6F000E3E6FE8EC0AF000502B
:102616003827015039237BD00701CE0E3C6F5A0E66
:102626003D6F000E3E6FE8EC0AF00050382701506F
:1026360039236DD00701AF0E3C6F5B0E3D6F000E68
:102646003E6FE8EC0AF000503827015039235FD07E
:102656000701EF0E3C6F5A0E3D6F000E3E6FE8EC21
:102666000AF0005038270150392351D007019E0E39
:102676003C6F5B0E3D6F000E3E6FE8EC0AF00050BB
:1026860038270150392343D00701E40E3C6F5A0E18
:102696003D6F000E3E6FE8EC0AF0005038270150FF
:1026A600392335D00701B40E3C6F5B0E3D6F000E2B
:1026B6003E6FE8EC0AF0005038270150392327D046
:1026C6000701B80E3C6F5A0E3D6F000E3E6FE8ECE8
:1026D6000AF0005038270150392319D006012C5131
:1026E600310A8CE02C51320A97E02C51330AA2E0D1
:1026F6002C51340AADE02C51350AB8E02C51360A7B
:10270600C3E02C51370ACEE02C51380AD9E0CB0E63
:1027160007013C6F5B0E3D6F000E3E6FE8EC0AF062
:102726000050382701503923450E3C6F5B0E3D6F34
:10273600000E3E6FE8EC0AF00050382701503923AE
:10274600340E3C6F060E3D6FB4EC05F00050382792
:1027560001503923C80E3C6F5B0E3D6F000E3E6F75
:10276600E8EC0AF00050382701503923FA0E3C6F86
:102776005A0E3D6F000E3E6FE8EC0AF00050382707
:10278600015039233C0E3C6F060E3D6FB4EC05F04C
:102796000050382701503923B90E3C6F5B0E3D6F50
:1027A600000E3E6FE8EC0AF000503827015039233E
:1027B600570E3C6F5B0E3D6F000E3E6FE8EC0AF065
:1027C6000050382701503923140E3C6F060E3D6F1A
:1027D600B4EC05F00050382701503923BC0E3C6F8D
:1027E6005B0E3D6F000E3E6FE8EC0AF00050382796
:1027F60001503923330E3C6F5B0E3D6F000E3E6F6A
:10280600E8EC0AF000503827015039231C0E3C6FC3
:10281600060E3D6FB4EC05F0005038270150392301
:10282600BF0E3C6F5B0E3D6F000E3E6FE8EC0AF08C
:102836000050382701503923D90E3C6F5A0E3D6F90
:10284600000E3E6FE8EC0AF000503827015039239D
:10285600240E3C6F060E3D6FB4EC05F00050382791
:1028660001503923C50E3C6F5B0E3D6F000E3E6F67
:10287600E8EC0AF0005038270150392377D00601DA
:10288600DB51780A18E13A0E07013C6F5A0E3D6F8C
:10289600000E3E6FE8EC0AF000C038F701C039F7C9
:1028A600640E3C6F000E3D6FB4EC05F00050382707
:1028B600015039235BD00601DB51750A2EE1050E66
:1028C60007013C6F5B0E3D6F000E3E6FE8EC0AF0B1
:1028D60000C038F701C039F7BC0E3C6F050E3D6FDE
:1028E600B4EC05F00050382701503923C30E3C6F75
:1028F6005A0E3D6F000E3E6FE8EC0AF00050382786
:1029060001503923CA0E3C6F050E3D6FB4EC05F03D
:10291600005038270150392329D00601DB51670AB8
:1029260025E15A0E07013C6F5A0E3D6F000E3E6FB1
:10293600E8EC0AF000C038F701C039F7AC0E3C6F7E
:102946005A0E3D6F000E3E6FE8EC0AF00050382735
:102956000150392315C03CF716C03DF717C03EF7A6
:10296600E8EC0AF000503827015039230701000E21
:10297600391902E1000E38193CE15A0E3C6F5A0E25
:102986003D6F000E3E6FE8EC0AF000C038F701C05C
:1029960039F7AC0E3C6F5A0E3D6F000E3E6FE8ECF9
:1029A6000AF0005038270150392318C03CF719C0E7
:1029B6003DF71AC03EF7E8EC0AF000503827015000
:1029C60039231BC03CF71CC03DF71DC03EF7E8ECA1
:1029D6000AF000503827015039231EC03CF71FC0AB
:1029E6003DF720C03EF7E8EC0AF0005038270150CA
:0C29F600392338C700F039C701F0120087
:102A0200B2D06F0E07013C6F060E3D6F3E6B040E97
:102A12003F6F000E406F9CEC09F0010E3C6F3D6B66
:102A220055EC08F056C090F657C091F658C092F691
:102A320059C093F6030E556EA7D0050E06019025D8
:102A4200016E000E9121026E000E9221036E000EA5
:102A52009321046E5950045C08E15850035C05E16F
:102A62005750025C02E15650015C02E2020E556EC2
:102A7200EBEC05F00050020A03E1040E556E01D0A2
:102A820083D0030E07013C6F5DC03DF755EC08F0A3
:102A920056C090F657C091F658C092F659C093F6B8
:102AA200050E556E71D0EBEC05F000C02EF700500C
:102AB200060A03E1040E556E2CD007012E51050AB9
:102AC20028E156C090F657C091F658C092F659C008
:102AD20093F6060E556E6F0E526F060E536F580E1A
:102AE200546F060E556F040E566F000E576F88EC2A
:102AF20001F0660E3C6F060E3D6F620E3E6F060ED3
:102B02003F6F500E406F060E416F71EC07F05D6A29
:102B120012003AD0010E06019025016E000E91219D
:102B2200026E000E9221036E000E9321046E045079
:102B3200595C08E10350585C05E10250575C02E120
:102B42000150565C0FE30601010E545F000E555B07
:102B5200565B575B56C090F657C091F658C092F636
:102B620059C093F611D05550020AD8B44AD75550DD
:102B7200030AD8B462D75550040A83E05550050AB7
:0A2B820092E05550060AC6E012006A
:102B8C0005C75CF706C75DF764EC00F000C015F7ED
:102B9C006AEC03F000C014F76AEC03F000C013F702
:102BAC006AEC03F000C012F707011A6B1F6B010EE1
:102BBC00206F1D6B1E6B0C0E05255C6F000E062125
:102BCC005D6F64EC00F000C018F7000E0701196F80
:102BDC001833189F1833189F000E196FFC0E181716
:102BEC00FF0E1917290E446F070E456FC90E466F5D
:102BFC00190E476F040E486F000E496F2FEC03F04F
:102C0C000D0E05255C6F000E06215D6F64EC00F067
:102C1C003F0E00140701166F176B000E1717000EEE
:102C2C00176F0E0E0601465D07011B6F000E0601A5
:102C3C00475907011C6F03511B5F04511C5B185152
:102C4C001B5F19511C5B020E05255C6F000E0621E3
:102C5C005D6F64EC00F000C05EF705C75CF706C75B
:102C6C005DF7A0EC00F0030E070105255C6F000E6C
:102C7C0006215D6F64EC00F000C05CF74BEC00F0DB
:102C8C0014C752F715C753F70BEC03F0040E0701EA
:102C9C0005255C6F000E06215D6F64EC00F000C032
:102CAC0024F76AEC03F000C023F76AEC03F000C0D1
:102CBC0022F76AEC03F000C021F76AEC03F000C0C5
:102CCC0028F76AEC03F000C027F76AEC03F000C0A9
:102CDC0026F76AEC03F000C025F7000E0701171960
:102CEC0002E1020E16193CE1010E2125006E000EC8
:102CFC002221016E000E2321026E000E2421036E90
:102D0C0000C025F701C026F702C027F703C028F73B
:102D1C00120E166F000E176F0C0E5C6FDEEC00F0CF
:102D2C0000C021F70D0E07015C6FDEEC00F000C057
:102D3C0022F707015C6BDEEC00F000C023F7010EFC
:102D4C0007015C6FDEEC00F000C024F707011A2BC2
:102D5C00180E186F000E196F1D6B1E6B2F6A6ED03C
:102D6C00000E171902E1180E16192FE121C707F7EB
:102D7C0022C708F723C709F724C70AF725C721F785
:102D8C0026C722F727C723F728C724F71B51072587
:102D9C00006E1C510821016E000E0921026E000EFE
:102DAC000A21036E00C025F701C026F702C027F7E1
:102DBC0003C028F7100E166F000E176F1A2B140E87
:102DCC00186F000E196F1F2B39D0000E171902E166
:102DDC00110E161933E121C70BF722C70CF723C7C5
:102DEC000DF724C70EF725C721F726C722F727C7EB
:102DFC0023F728C724F7010E0B25006E000E0C21BB
:102E0C00016E000E0D21026E000E0E21036E00C02D
:102E1C0025F701C026F702C027F703C028F7100ECC
:102E2C00166F000E176F1A2B140E186F000E196FF9
:102E3C001D6B1E6B305202E12F2A306A1A53D8B424
:102E4C00C3D10701040E0525526F000E0621536FE6
:102E5C0024C754F723C755F77DEC01F022C75CF764
:102E6C004BEC00F021C75CF74BEC00F028C75CF78B
:102E7C004BEC00F027C75CF74BEC00F026C75CF777
:102E8C004BEC00F025C75CF74BEC00F00C0E070187
:102E9C0005255C6F000E06215D6F64EC00F00F0ED3
:102EAC00001407015E6F18C700F000360090003662
:102EBC00009000505E130C0E05255C6F000E062171
:102ECC005D6FA0EC00F00D0E070105255C6F000E88
:102EDC0006215D6F64EC00F0C00E001407015E6FFC
:102EEC0016515E130D0E05255C6F000E06215D6FED
:102EFC00A0EC00F0000E0701171902E1120E1619D2
:102F0C0016E1140E0525526F000E0621536F020EAA
:102F1C00546F040E556F7DEC01F0050E07015C6FCC
:102F2C004BEC00F0780E07015C6F4BEC00F00701E6
:102F3C0003511D251B6F04511E211C6F18511B279B
:102F4C0019511C23205304E087EC0BF0C0EC0CF05F
:102F5C00BF0E526F190E536F1CC754F71BC755F792
:102F6C007DEC01F0C70E0701526F190E536F546BB5
:102F7C00556B7DEC01F0BD0E0701526F190E536FAE
:102F8C0003C754F704C755F7E3EC02F0160E07011C
:102F9C005C6FDEEC00F000C02DF7170E07015C6FC4
:102FAC00DEEC00F000C054F7C70E0701526F190E8B
:102FBC00536F2DC755F77DEC01F0BD0E07011B2596
:102FCC00106F190E1C21116F100E0525526F000E7B
:102FDC000621536F546B556B7DEC01F0010E07010C
:102FEC001B150F6F10C75CF711C75DF75E6BA0EC7C
:102FFC0000F0C90E0701526F190E536FD10E546FAA
:10300C00190E556F0F511025566F000E1121576F69
:10301C00586BF6EC00F0080E1025526F000E1121C3
:10302C00536F0F515227000E5323546B060E556FDE
:10303C007DEC01F00A0E07011025526F000E1121D4
:10304C00536F0F515227000E53231D511825036E39
:10305C001E511921046E04C000F0016A00C054F71F
:10306C0003C055F77DEC01F005C752F706C753F7BF
:10307C0007011D511825546F1E511921556F0C0E47
:10308C005427000E55230F515427000E5523E3EC03
:10309C0002F0160E07015C6FDEEC00F000C02DF79D
:1030AC00170E07015C6FDEEC00F000C054F7100E39
:1030BC0007010525526F000E0621536F2DC755F7DA
:1030CC007DEC01F00E0E07011B25526F000E1C212A
:1030DC00536FB0EC01F007011F5350E0100E166F48
:1030EC00000E176F1F6B206B020E5F6F18510525BA
:1030FC00606F19510621616F23EC00F00E0E070171
:10310C0001252E6F000E02212F6F03512E27045123
:10311C002F2318512E2719512F23A6EC0BF02F2AF1
:10312C00290E07012E6F070E2F6F14C730F715C726
:10313C0031F712C732F713C733F70E0E0601465D8F
:10314C000701346F000E060147590701356F035113
:10315C00345F0451355B1851345F1951355B730E74
:10316C00366F060E376F6BEC0DF000C01DF701C00B
:10317C001EF7060173B101D02F6A63D62F5224E0DB
:10318C0007011D512125006E1E512221016E000EDA
:10319C002321026E000E2421036E00C021F701C012
:1031AC0022F702C023F703C024F7110E166F000E8E
:1031BC00176F2F6A206B140E186F000E196F1D6B92
:0A31CC001E6B010E306E3DD612009E
:1031D6001F0E07015C6F010E5D6F83EC00F01F0E82
:1031E60007015C6F020E5D6FC1EC00F0140E070163
:1031F6002E6F01C72FF7B9EC0BF0D8EC0BF0160EBB
:103206002E6F03C72FF7B9EC0BF0D8EC0BF0170EA7
:103216002E6F02C72FF7B9EC0BF0D8EC0BF01200AB
:0A322600210E0D6E0D2EFED71200D2
:103230001F0E07015C6F010E5D6F83EC00F01F0E27
:1032400007015C6F020E5D6FC1EC00F0140E070108
:103250002E6F01C72FF7B9EC0BF0120E07015C6F50
:10326000010E5D6FC1EC00F0D8EC0BF0120E5C6F3C
:10327000010E5D6F83EC00F0160E07015C6FDEEC53
:1032800000F004C7E1FF05C7E2FF00C0E6FF170E2C
:1032900007015C6FDEEC00F002C7E1FF03C7E2FF4D
:0632A00000C0E6FF120071
:1032A600C40E07015C6F190E5D6F64EC00F000C080
:1032B60001F7E8D0D50E07012E6F190E2F6F6F0E8E
:1032C600306F060E316F040E326FE4EC0BF00050D7
:1032D600000A4BE1C40E07015C6F190E5D6F020E0A
:1032E6005E6FA0EC00F087EC0BF0CB0E526F190E60
:1032F600536FCF0E546F190E556FD50E566F190EAC
:10330600576F586BF6EC00F0CB0E526F190E536FD9
:103316006F0E546F060E556F040E566F000E576FE4
:10332600B2EC02F0C50E526F190E536FCB0E546FEE
:10333600190E556FCF0E566F190E576F586BF6EC68
:1033460000F0C50E526F190E536F5C0E546F060EC9
:10335600556F060E566F000E576FB2EC02F03C0E1C
:10336600526F000E536FB0EC01F095D0AF0E07010F
:103376002E6F190E2F6F5C0E306F060E316F060E14
:10338600326FE4EC0BF00050000A7BE1CB0E070134
:103396002E6F190E2F6F44C630F745C631F7040E4F
:1033A600326FE4EC0BF00050000A6BE15AC000F0FB
:1033B600000E016E0F0E046E000E056EB9EC03F0E2
:1033C600D80E00240701446F050E0120456F090E33
:1033D6004427000E4523C50E466F190E476F060E8D
:1033E600486F000E496F2FEC03F05AC000F0000E34
:1033F600016E0F0E046E000E056EB9EC03F0D80ECA
:103406000024526F050E0120536F050E5227000E41
:10341600532344C654F745C655F7040E566F000E9F
:10342600576F88EC01F05AC000F0000E016E0F0EC7
:10343600046E000E056EB9EC03F0D80E0024E16EA2
:10344600050E0120E26E010EE66E5AC000F0000E77
:10345600016E0F0E046E000E056EB9EC03F0D80E69
:103466000026050E0122010E0024E16E000E012049
:10347600E26E56C0E6FF57C0E6FF58C0E6FF59C0E9
:10348600E6FF09D007010151010AD8B413D701514B
:08349600020AD8B46BD7120042
:10349E0004C75CF705C75DF764EC00F000C00FF7DA
:1034AE006AEC03F000C00EF76AEC03F000C00DF7F3
:1034BE006AEC03F000C00CF7000E07010D1902E1D3
:1034CE00000E0C19D8B412006AEC03F000C011F70C
:1034DE006AEC03F000C010F7120E0701446F070EDE
:1034EE00456FC90E466F190E476F040E486F000EDA
:1034FE00496F2FEC03F0020E5F6F080E0425606F0C
:10350E00000E0521616F23EC00F00E0E0701012560
:10351E002E6F000E02212F6F03512E27000E2F2328
:10352E00080E2E27000E2F23A6EC0BF0000E07011F
:10353E000F1902E1350E0E1903E12DEC0CF04FD0F0
:10354E00000E07010D1902E1440E0C1903E101EC06
:10355E0015F045D0120E07012E6F070E2F6F0EC7F6
:10356E0030F70FC731F70CC732F70DC733F7080E18
:10357E00105D346F000E1159356F730E366F060ED7
:10358E00376FDFEC0CF000C010F701C011F70050E0
:10359E00011025E0060E0701446F070E456FB50EAC
:1035AE00466F190E476F060E486F000E496F2FECCF
:1035BE0003F0060E446F070E456F120E466F070E90
:1035CE00476F0CC748F70DC749F70EC74AF70FC725
:1035DE004BF710C74CF711C74DF787EC04F01200EC
:1035EE000601FF6B738173931F0E07015C6F010E53
:1035FE005D6F83EC00F01F0E07015C6F020E5D6FB6
:10360E0083EC00F007015F6B5BC060F75CC061F795
:10361E0023EC00F08B9282C6E1FF83C6E2FF3A0EE6
:10362E00E66E80C600F081C601F017EC00F082C68F
:10363E00E1FF83C6E2FFE66A80C600F081C601F0B4
:10364E0017EC00F000C05BF082C6E1FF83C6E2FF1C
:10365E00E66A80C600F081C601F017EC00F000C0EB
:10366E005CF082C6E1FF83C6E2FFE66A80C600F028
:10367E0081C601F017EC00F000C046F682C6E1FFED
:10368E0083C6E2FFE66A80C600F081C601F017EC41
:10369E0000F000C047F682C6E1FF83C6E2FFE66A8D
:1036AE0080C600F081C601F017EC00F000C0FDF6F8
:1036BE0082C6E1FF83C6E2FFE66A80C600F081C6DD
:1036CE0001F017EC00F000C0FEF68B82040E06012E
:1036DE00465F000E475B5C50190802E15B50AD0877
:1036EE000DE35BB00BD0FEBF09D04751050802E1D8
:1036FE004651EE0803E3FDAF01D003D0010E006E7C
:10370E00120007015C6BDEEC00F000C0FBF6010E50
:10371E0007015C6FDEEC00F000C0FCF6FBC652F752
:10372E00FCC653F706014651FB250701546F0601EF
:10373E004751FC210701556FAF0E566F190E576F8B
:10374E00010E586FF6EC00F0BB0E5C6F190E5D6F3C
:10375E0064EC00F000C0FEF66AEC03F000C0FDF66B
:10376E000601FE51080A02E1060EFD1912E1BD0E18
:10377E0007012E6F190E2F6F4D0E306F000E316F29
:10378E00070E326FE4EC0BF00050000A01E184DD0D
:10379E004DD10601FE51080A02E1000EFD19D8A412
:1037AE0042D1CD0E07012E6F190E2F6F740E306F92
:1037BE00060E316F040E326FE4EC0BF0005202E194
:1037CE0006017383CD0E07012E6F190E2F6F470E54
:1037DE00306F000E316F040E326FE4EC0BF00052BE
:1037EE0002E106017383CD0E07012E6F190E2F6FA6
:1037FE006F0E306F060E316F040E326FE4EC0BF06D
:10380E00005206E0060173B303D0020EFF6F0AD119
:10381E00BD0E07015C6F190E5D6F64EC00F0F00ECB
:10382E000014016E0150400A04E0030E0601FF6F02
:10383E00F9D0BD0E07015C6F190E5D6F64EC00F0E0
:10384E0000C0F9F6000E0601FA6F0F0EF917000E02
:10385E00FA17F937F991FA37F937F991FA37C30EA2
:10386E0007015C6F190E5D6F64EC00F0BF0E001463
:10387E00016E0150000AD8A4D5D0C40E07015C6FAA
:10388E00190E5D6F64EC00F00050000AD8A4CAD087
:10389E00BD0E0601F925F76F190EFA21F86FC60E47
:1038AE0007015C6F190E5D6F64EC00F000C0F6F658
:1038BE000050010AD8A494D0F7C65CF7F8C65DF79D
:1038CE0064EC00F00050080AD8A489D0010E06015D
:1038DE00F72507015C6F000E0601F82107015D6FE9
:1038EE0064EC00F00050000A7AE1F7C65CF7F8C607
:1038FE005DF707015E6BA0EC00F087EC0BF0C0ECFF
:10390E000CF0C70E526F190E536F546B556B7DEC46
:10391E0001F0BD0E0701526F190E536FF9C654F721
:10392E00FAC655F7E3EC02F0160E07015C6FDEECFB
:10393E0000F000C000F7170E07015C6FDEEC00F020
:10394E0000C054F7C70E0701526F190E536F00C710
:10395E0055F77DEC01F0020E0601F7250701526FB7
:10396E00000E0601F8210701536F546B556B7DEC69
:10397E0001F0F7C652F7F8C653F70601F951465D46
:10398E000701546F0601FA5147590701556F0E0E84
:10399E00545F000E555BE3EC02F0160E07015C6FF0
:1039AE00DEEC00F000C000F7170E07015C6FDEECD6
:1039BE0000F000C054F7020E0601F7250701526F02
:1039CE00000E0601F8210701536F00C755F77DEC75
:1039DE0001F046C652F747C653F7B0EC01F022D0BD
:1039EE000601F651110A0CE1FBC601F7FCC602F7FF
:1039FE00F9C603F7F7C604F7F8C605F749DD12D086
:103A0E000601F651060A0EE1FBC601F7FCC602F7E7
:103A1E00F9C603F7FAC604F7F7C605F7F8C606F7B0
:103A2E00C6EC15F003D0040E0601FF6F1E0E070143
:103A3E005C6F400E5D6FC1EC00F0010E5B5C016EC1
:103A4E00000E5C58026E0250190802E10150AD08DA
:103A5E000AE20C0E07015F6FAD0E606F190E616FFB
:103A6E0023EC00F00BD00C0E07015F6F010E5B5CB8
:103A7E00606F000E5C58616F23EC00F0FFC600F023
:023A8E00120024
:103A90000601F76BF86B989384A006D098A303D027
:103AA000FF0E006E1200F8D784B006D098A303D0A2
:103AB000FF0E006E1200F8D7F72B13EC19F098A345
:103AC00003D0FF0E006E120084B0F6D784B006D08B
:103AD00098A303D0FF0E006E1200F8D7F82B13EC5A
:103AE00019F098A303D0FF0E006E120084B0F6D731
:103AF000F7C601F00132019E0132019EF8C6F6F6CA
:103B0000F633F69FF633F69FF7510126026A000E50
:103B10000222800E0218006E800E005C02E1F85155
:103B2000015C06E2F751000802E2F7C69CF614D0E9
:103B3000F651F825016E026A000E0222800E02186C
:103B4000006E800E005C02E1F751015C05E2F85165
:103B5000000802E2F8C69CF69CC69BF69B379B9138
:063B60009CC600F01200FB
:103B660007012E6B0601F65303E00D0E006E02D020
:103B7600050E006E00C02FF7B9EC0BF0020E070120
:103B86002E6F0601F65303E0310E006E02D0300EA2
:103B9600006E00C02FF7B9EC0BF00A0E07015F6F3D
:103BA600EE0E606F050E616F23EC00F0040E070148
:103BB6002E6F0601F65303E0150E006E02D0120EAC
:103BC600006E00C02FF7B9EC0BF0060E07012E6F42
:103BD600120E2F6FB9EC0BF00601F65307E1070E34
:103BE60007012E6F0C0E2F6FB9EC0BF00601F65382
:103BF60007E1090E07012E6F3F0E2F6FB9EC0BF090
:103C06001F0E07015C6F010E5D6FC1EC00F01F0E09
:103C160007015C6F020E5D6FC1EC00F0040E070138
:103C26002E6F5CC62FF7B9EC0BF0050E07012E6F51
:103C36005DC62FF7B9EC0BF0020E07012E6F5EC6BC
:103C46002FF7B9EC0BF0030E07012E6F5FC62FF7A7
:103C5600B9EC0BF007012E6B60C62FF7B9EC0BF031
:103C6600010E07012E6F61C62FF7B9EC0BF0150E8A
:103C760007012E6F2F6BB9EC0BF0120E07015C6F6C
:103C8600DEEC00F000C06AF60701016BF70E026F6A
:103C9600060E036FF80E046F060E056F18EC19F08A
:103CA6000701016BFE0E0601F7150701026F0601FB
:103CB600F65303E0010E006E01D0006A00500701C2
:103CC6000213F8C603F7EBEC18F0100E016F010EA5
:103CD600026F036BEBEC18F01F0E5C6F040E5D6F4A
:103CE600C1EC00F0D8EC0BF0D80E3C6F050E3D6F22
:103CF6003E6B2D0E3F6F000E406F9CEC09F01F0EC1
:103D06005C6F010E5D6F83EC00F01F0E07015C6FA8
:0A3D1600020E5D6F83EC00F0120056
:103D2000958695840601989183B604D098A101D018
:063D300001D0FAD71200D9
:103D36000134083609360450085E0550D8A0053C03
:103D4600095E003601360F0E0C6E01340836093650
:103D5600045000A006D0085E0550D8A0053C095EB8
:103D660005D008260550D8B0053C09260036013690
:103D76000C2EEBD700B006D0045008260550D8B05C
:083D8600053C092600001200B3
:103D8E000450000A08E10550000A05E1FF0E006E1E
:103D9E007F0E016E12000D6A096A086A015000104A
:103DAE00D8B4000C015005180A6E0ABE0D1E0B6A1F
:103DBE0005AE05D0041E051E042AD8B4052A01AE90
:103DCE0005D0001E011E002AD8B4012A015005108C
:103DDE000A6E0ABE10D0A8DF0BB020D00DAE000CBC
:103DEE00001E011E002AD8B4012A081E091E082A28
:103DFE00D8B4092A000C05AE0DD001BE07D0015073
:103E0E00096E0050086E016A006AE8D7016A006AFE
:103E1E00002A000C011E001E0B2ADDD7082AD8B47A
:103E2E00092A0450085CD8A4D9D70550095CD8A437
:103E3E00D5D7096A086A002AD8B4012A01AECED7AE
:063E4E000000FF0C120051
:103E540006019893F3C6F4F6F1C6E1FFF2C6E2FF59
:103E6400010EE66E84A00BD098A308D0F1C6E1FF42
:103E7400F2C6E2FFFF0EE66E006A1200F3D784B0CA
:103E84000BD098A308D0F1C6E1FFF2C6E2FFFF0E03
:103E9400E66E006A1200F3D79CC6F3F6F333F39F81
:103EA40000000000000013EC19F0F307F353F8E1ED
:103EB40084B002D0006A12009BC6F3F60000000032
:103EC400000013EC19F0F307F353F8E184B002D0C7
:103ED400006A12009BC6F3F600000000000013EC19
:103EE40019F0F307F353F8E184A002D0006A12003A
:103EF400F46B9BC6F3F600000000000013EC19F00D
:103F0400F307F353F8E184B0F48F9BC6F3F6000093
:103F14000000000013EC19F0F307F353F8E184B048
:103F2400F48D9BC6F3F600000000000013EC19F0BA
:103F3400F307F353F8E184B0F48B9BC6F3F6000067
:103F44000000000013EC19F0F307F353F8E184B018
:103F5400F4899BC6F3F600000000000013EC19F08E
:103F6400F307F353F8E184B0F4879BC6F3F600003B
:103F74000000000013EC19F0F307F353F8E184B0E8
:103F8400F4859BC6F3F600000000000013EC19F062
:103F9400F307F353F8E184B0F4839BC6F3F600000F
:103FA4000000000013EC19F0F307F353F8E184B0B8
:103FB400F481F1C6E1FFF2C6E2FFE66AF4C600F05E
:023FC4001200E9
:103FC6000601F16BF26B968060DD00C0F2F60052DE
:103FD6000AE1F12BF151640805E2010E006E000EB4
:103FE600016E1200F1D7F251FF0A05E1FF0E006ED5
:0C3FF600000E016E1200006A016A120049
:104002000900F5CFE6FF0006FBE10106F9E1120027
:0E401200936AFF0E816EFF0E936E81DE120028
:104020000601F16B1F0E07015C6F010E5D6FC1ECA5
:1040300000F01F0E07015C6F020E5D6F83EC00F055
:10404000190E07015C6FDEEC00F00050000804E27E
:10405000F7EC1AF000C0F1F61F0E07015C6F010EBD
:104060005D6F83EC00F01F0E07015C6F020E5D6F49
:0A40700083EC00F0F1C600F012002E
:10407A001C0E0601806F000E816F620E826F070EA2
:10408A00836FFF0E946FFF0E956FFF0E966FFF0EF4
:10409A00976F949A94969488C66A400EC76EC68A99
:0240AA00120002
:1040AC0094908B8094928B82D8EC0BF08B80D8EC14
:1040BC000BF08B90D8EC0BF08B80D8EC0BF08B9238
:1040CC0082C6E1FF83C6E2FFFF0EE66E80C600F0FB
:1040DC0081C601F017EC00F08B82D8EC0BF05C0E73
:1040EC00526F060E536FF1C654F7F2C655F7060E13
:1040FC00566F000E576F88EC01F06F0E526F060E64
:10410C00536FF3C654F7F4C655F7040E566F000EF2
:10411C00576F88EC01F01F0E5C6F010E5D6F83EC26
:10412C0000F01F0E07015C6F020E5D6F83EC00F058
:10413C00080E07015F6F606B616B23EC00F00A0ED9
:10414C0007015F6FAD0E606F190E616F23EC00F00D
:10415C000C0E07015F6FAD0E606F190E616F23ECD3
:10416C0000F007015F6B606B616B23EC00F0040ED9
:10417C0007015F6FAE0E606F190E616F23EC00F0DC
:10418C001F0E07015C6F010E5D6F83EC00F01F0EBC
:10419C0007015C6F020E5D6FC1EC00F0F5C6F6F620
:0441AC00DCDC120045
:1041B000F2EC2DF00601056B276A286A296A2A6A43
:1041C0002B6A2C6A2D6A2E6A216A226A236A246A63
:1041D000256A266A640E07013C6F000E3D6F3E6B38
:1041E0006A0E3F6F050E406F9CEC09F0BC0E3C6FF1
:1041F000050E3D6F310E3E6F0E0E3F6F000E406F8D
:104200009CEC09F0CA0E3C6F050E3D6F310E3E6FFF
:104210000E0E3F6F000E406F9CEC09F0340E3C6FA9
:10422000060E3D6F3E6B080E3F6F000E406F9CEC1C
:1042300009F02C0E3C6F060E3D6F3E6B080E3F6F73
:10424000000E406F9CEC09F0140E3C6F060E3D6FA3
:104250003E6B080E3F6F000E406F9CEC09F01C0E89
:104260003C6F060E3D6F3E6B080E3F6F000E406FB9
:104270009CEC09F03C0E3C6F060E3D6F3E6B080E49
:104280003F6F000E406F9CEC09F0240E3C6F060E51
:104290003D6F3E6B080E3F6F000E406F9CEC09F0C7
:1042A000310E0601346F310E356F310E2C6F310E29
:1042B000146F310E156F2E0E166F310E176F310EF3
:1042C0001C6F310E1D6F310E1E6F310E1F6F310EC0
:1042D0003C6F310E246F2E0E256F310E266F310E7E
:1042E000276F286B0B0EC16E070EB46E92869290EC
:1042F00092829298929A836A956A010E946E808A4D
:10430000809861DE080E0B6E9D0E0C6E050E0D6E14
:104310000D2EFED70C2EFCD70B2EFAD70000000076
:10432000ACDE1C0E806F000E816F620E826F070E76
:10433000836F3D0EF16F000EF26F430EF36F000EB0
:10434000F46F010EF56FB2DE310E07013C6F000E07
:104350003D6F350E3E6F000E3F6F390E406F000E01
:10436000416F71EC07F0060E0B6E130E0C6EAD0E66
:104370000D6E0D2EFED70C2EFCD70B2EFAD700009B
:10438000000047DE8088808A010E2726000E282242
:1043900029222A22010E2B26000E2C222D222E222B
:1043A0002A50010A08E12950AD0A05E12850230AE4
:1043B00002E12750600AD8A457EF27F059EC07F024
:1043C000A00E07013C6F2EEC0AF0020E3C6F2EECA3
:1043D0000AF059EC07F0A10E3C6F2EEC0AF0010E2A
:1043E0003C6F000E3D6FD6EC09F000C00CF6000EDD
:1043F00006010D6F010E07013C6F000E3D6FD6ECFC
:1044000009F000C00EF6000E06010F6F010E070145
:104410003C6F000E3D6FD6EC09F03F0E0014060114
:10442000106F116B000E1117000E116F010E0701B6
:104430003C6F000E3D6FD6EC09F000C006F6000E92
:104440000601076F07013C6B3D6BD6EC09F000C01D
:1044500008F6000E0601096F40EC07F0F00E0601A9
:104460000C15036E0DC604F0000E041603C000F018
:1044700004C001F001320032019E01320032019E7F
:1044800001320032019E01320032019E0A0E046E9A
:10449000000E056EB9EC03F00F0E0C15026E0DC682
:1044A00003F0000E0316025000240C6F035001208D
:1044B0000D6FF00E0E15036E0FC604F0000E0416FD
:1044C00003C000F004C001F001320032019E01324D
:1044D0000032019E01320032019E01320032019E03
:1044E0000A0E046E000E056EB9EC03F00F0E0E15E9
:1044F000026E0FC603F0000E0316025000240E6F6A
:10450000035001200F6FF00E1015036E11C604F05A
:10451000000E041603C000F004C001F001320032A6
:10452000019E01320032019E01320032019E0132B1
:104530000032019E0A0E046E000E056EB9EC03F007
:104540000F0E1015026E11C603F0000E0316025076
:104550000024106F03500120116FC00E06150A6F62
:1045600007C60BF6000E0B17060E006E005005E096
:104570000B330A330B9FFF0FFAD7300E0615036E6D
:1045800007C604F0000E041603C000F004C001F0DA
:1045900001320032019E01320032019E01320032AE
:1045A000019E01320032019E0A0E046E000E056E5D
:1045B000B9EC03F00F0E0615026E07C603F0000EED
:1045C000031602500024066F03500120076F100EDF
:1045D0000815036E09C604F0000E041603C000F0AF
:1045E00004C001F001320032019E01320032019E0E
:1045F00001320032019E01320032019E0A0E046E29
:10460000000E056EB9EC03F00F0E0815026E09C618
:1046100003F0000E031602500024086F035001201F
:10462000096F840E07013C6F0F0E3D6F020E3E6F47
:10463000BAEC0AF0840E3C6F0F0E3D6F020E3E6F17
:10464000CC0E3F6F27EC0BF0840E3C6F0F0E3D6FCE
:10465000020E3E6F440E3F6F27EC0BF0020E0C6E05
:104660008D0E0D6E0D2EFED70C2EFCD70000000017
:10467000840E3C6F0F0E3D6F020E3E6FBAEC0AF0D7
:10468000840E3C6F0F0E3D6F020E3E6FCC0E3F6FDF
:1046900027EC0BF0840E3C6F0F0E3D6F020E3E6F49
:1046A000BE0E3F6F27EC0BF0020E0C6E8D0E0D6EE2
:1046B0000D2EFED70C2EFCD700000000840E3C6FA0
:1046C0000F0E3D6F020E3E6F23EC09F000C0C1F6E5
:1046D000000E0601C26F840E07013C6F0F0E3D6F86
:1046E000020E3E6F23EC09F000C005F0046A0601DB
:1046F000C1510424026EC2510520036E02C0C1F6EE
:1047000003C0C2F603AE09D0010EA06F000EA16F68
:10471000C11FC21FC14BC22B02D0A06BA16BC1C66F
:10472000A2F6C2C6A3F6A333A233A39FA333A23338
:10473000A39FA333A233A39FA333A233A39FC1C6D6
:10474000C3F6C2C6C4F6010E07013C6FBAEC09F00D
:1047500000C012F601C013F6030E015C02E1E80E80
:10476000005C06E3640E0601126F000E136F0ED09C
:104770000A0E046E000E056E12C600F013C601F09C
:1047800099EC05F000C012F601C013F60601640EA4
:104790002524E16E000E2620E26E320EE66E010E3A
:1047A0002524006E000E2620016E640E0024E16EAA
:1047B000000E0120E26E300EE66E020E2524006E21
:1047C000000E2620016E640E0024E16E000E012012
:1047D000E26E310EE66E030E2524006E000E2620DA
:1047E000016E640E0024E16E000E0120E26E300EB8
:1047F0000A25006E00C0E6FF040E2524006E000EA0
:104800002620016E640E0024E16E000E0120E26E8F
:104810002D0EE66E050E2524006E000E2620016E7C
:10482000640E0024EF6F000E0120F06F0A0E046E7C
:10483000000E056E08C600F009C601F099EC05F0FF
:104840000A0E046E000E056E99EC05F008C000F02B
:1048500009C001F0300E0026EFC6E1FFF0C6E2FF0E
:1048600000C0E6FF060E2524006E000E2620016E15
:10487000640E0024EF6F000E0120F06F0A0E046E2C
:10488000000E056E08C600F009C601F099EC05F0AF
:1048900008C000F009C001F0300E0026EFC6E1FFAD
:1048A000F0C6E2FF00C0E6FF070E2524006E000EF2
:1048B0002620016E640E0024E16E000E0120E26EDF
:1048C0002D0EE66E080E2524006E000E2620016EC9
:1048D000640E0024EF6F000E0120F06F0A0E046ECC
:1048E000000E056E06C600F007C601F099EC05F053
:1048F0000A0E046E000E056E99EC05F008C000F07B
:1049000009C001F0300E0026EFC6E1FFF0C6E2FF5D
:1049100000C0E6FF090E2524006E000E2620016E61
:10492000640E0024EF6F000E0120F06F0A0E046E7B
:10493000000E056E06C600F007C601F099EC05F002
:1049400008C000F009C001F0300E0026EFC6E1FFFC
:10495000F0C6E2FF00C0E6FF0A0E2524006E000E3E
:104960002620016E640E0024E16E000E0120E26E2E
:10497000200EE66E0B0E2524006E000E2620016E22
:10498000640E0024EF6F000E0120F06F0A0E046E1B
:10499000000E056E10C600F011C601F099EC05F08E
:1049A0000A0E046E000E056E99EC05F008C000F0CA
:1049B00009C001F0300E0026EFC6E1FFF0C6E2FFAD
:1049C00000C0E6FF0C0E2524006E000E2620016EAE
:1049D000640E0024EF6F000E0120F06F0A0E046ECB
:1049E000000E056E10C600F011C601F099EC05F03E
:1049F00008C000F009C001F0300E0026EFC6E1FF4C
:104A0000F0C6E2FF00C0E6FF0D0E2524006E000E8A
:104A10002620016E640E0024E16E000E0120E26E7D
:104A20003A0EE66E0E0E2524006E000E2620016E54
:104A3000640E0024EF6F000E0120F06F0A0E046E6A
:104A4000000E056E0EC600F00FC601F099EC05F0E1
:104A50000A0E046E000E056E99EC05F008C000F019
:104A600009C001F0300E0026EFC6E1FFF0C6E2FFFC
:104A700000C0E6FF0F0E2524006E000E2620016EFA
:104A8000640E0024EF6F000E0120F06F0A0E046E1A
:104A9000000E056E0EC600F00FC601F099EC05F091
:104AA00008C000F009C001F0300E0026EFC6E1FF9B
:104AB000F0C6E2FF00C0E6FF100E2524006E000ED7
:104AC0002620016E640E0024E16E000E0120E26ECD
:104AD0003A0EE66E110E2524006E000E2620016EA1
:104AE000640E0024EF6F000E0120F06F0A0E046EBA
:104AF000000E056E0CC600F00DC601F099EC05F035
:104B00000A0E046E000E056E99EC05F008C000F068
:104B100009C001F0300E0026EFC6E1FFF0C6E2FF4B
:104B200000C0E6FF120E2524006E000E2620016E46
:104B3000640E0024EF6F000E0120F06F0A0E046E69
:104B4000000E056E0CC600F00DC601F099EC05F0E4
:104B500008C000F009C001F0300E0026EFC6E1FFEA
:104B6000F0C6E2FF00C0E6FF130E2524006E000E23
:104B70002620016E640E0024E16E000E0120E26E1C
:104B80002C0EE66E000EA11902E1010EA0190FE134
:104B9000140E2524006E000E2620016E640E0024E3
:104BA000E16E000E0120E26E2D0EE66E0ED0140EA8
:104BB0002524006E000E2620016E640E0024E16E96
:104BC000000E0120E26E2B0EE66E150E2524006EFF
:104BD000000E2620016E640E0024EF6F000E0120EF
:104BE000F06F0A0E046E000E056EA2C600F0A3C69A
:104BF00001F099EC05F00A0E046E000E056E99ECBA
:104C000005F008C000F009C001F0300E0026EFC624
:104C1000E1FFF0C6E2FF00C0E6FF160E2524006E9D
:104C2000000E2620016E640E0024EF6F000E01209E
:104C3000F06F0A0E046E000E056EA2C600F0A3C649
:104C400001F099EC05F008C000F009C001F0300E49
:104C50000026EFC6E1FFF0C6E2FF00C0E6FF170E38
:104C60002524006E000E2620016E640E0024E16EE5
:104C7000000E0120E26E2E0EE66E180E2524006E48
:104C8000000E2620016E640E0024EF6F000E01203E
:104C9000F06F0A0E046E000E056EC3C600F0C4C6A7
:104CA00001F099EC05F008C000F009C001F0300EE9
:104CB0000026EFC6E1FFF0C6E2FF00C0E6FF190ED6
:104CC0002524006E000E2620016E640E0024EF6F76
:104CD000000E0120F06F0A0E046E000E056EC3C6B2
:104CE00000F0C4C601F099EC05F00A0E046E000E47
:104CF000056E99EC05F008C000F009C001F0300E17
:104D00000026EFC6E1FFF0C6E2FF00C0E6FF1A0E84
:104D10002524006E000E2620016E640E0024E16E34
:104D2000000E0120E26E2C0EE66E1B0E2524006E96
:104D3000000E2620016E640E0024E16E000E01209C
:104D4000E26E3CC6E6FF1C0E2524006E000E2620F7
:104D5000016E640E0024E16E000E0120E26E14C6A6
:104D6000E6FF1D0E2524006E000E2620016E640E47
:104D70000024E16E000E0120E26E15C6E6FF1E0E55
:104D80002524006E000E2620016E640E0024E16EC4
:104D9000000E0120E26E2E0EE66E1F0E2524006E20
:104DA000000E2620016E640E0024E16E000E01202C
:104DB000E26E17C6E6FF200E2524006E000E2620A8
:104DC000016E640E0024E16E000E0120E26E2C0ED6
:104DD000E66E210E2524006E000E2620016E640E64
:104DE0000024EF6F000E0120F06F0A0E046E000E1B
:104DF000056E12C600F013C601F099EC05F00A0E1C
:104E0000046E000E056E99EC05F008C000F009C0B4
:104E100001F0300E0026EFC6E1FFF0C6E2FF00C051
:104E2000E6FF220E2524006E000E2620016E640E81
:104E30000024EF6F000E0120F06F0A0E046E000ECA
:104E4000056E12C600F013C601F099EC05F008C01B
:104E500000F009C001F0300E0026EFC6E1FFF0C6F9
:104E6000E2FF00C0E6FF230E2524006E000E262080
:104E7000016E640E0024E16E000E0120E26E0A0E47
:104E8000E66E240E2524016E000E2620026E01C05F
:104E900025F002C026F00250050A02E1580E011862
:104EA00002E1256A266A276A286A296A2A6A2E5038
:104EB000000A08E12D501E0A05E12C50840A02E187
:104EC0002B50800AD8A4B8D006014C6B4D6B808A59
:104ED0008098820E0C6EDD0E0D6E0D2EFED70C2E00
:104EE000FCD7000000004F0EF16F060EF26F2AECA7
:104EF0001FF000C04EF600500B0A01E104D04F53E2
:104F000001E001D0F0D74F0EF16F060EF26F2AECE0
:104F10001FF000C04EF64F530CE0052B055114084E
:104F200007E248EC1DF000C04EF6E3EC1FF0056B05
:104F30000DD04E510E0A08E0BC0E4C25E16E050E58
:104F40004D21E26E4EC6E6FF4C4B4D2B020E0B6E12
:104F5000450E0C6EA90E0D6E0D2EFED70C2EFCD735
:104F60000B2EFAD7000000004E510E0ACCE14C6B1C
:104F70004D6B2B6A2C6A2D6A2E6A0501C56BBC51DC
:104F8000310A5AE1BD51BC25006E016A000E0122B2
:104F9000BE510026000E0122BF510026000E012244
:104FA000C0510026000E0122C1510026000E012230
:104FB000C2510026000E0122C3510026000E01221C
:104FC000020E046E000E056EC7EC1EF008C000F065
:104FD00009C001F0300E0024026E000E0120036EA5
:104FE000000E031803E10501C451021825E1BFC5F5
:104FF0002CF606012D6BBDC534F6BEC535F6366BF5
:10500000C0C53CF63D6BC1C514F6C2C515F62E0EE3
:10501000166FC3C517F6186B8088808A020E0B6E58
:10502000450E0C6EA90E0D6E0D2EFED70C2EFCD764
:105030000B2EFAD700000000010E2126000E2222BE
:10504000232224222450000A08E12350300A05E1DB
:105050002250D40A02E12150000AD8A4A7D08088A7
:10506000809A820E0C6EDD0E0D6E0D2EFED70C2E6C
:10507000FCD70000000006014F0EF16F060EF26F24
:105080002AEC1FF000C04EF600500B0A01E104D0DC
:105090004F5301E001D0EFD706014F0EF16F060E1E
:1050A000F26F2AEC1FF000C04EF64F530CE0052BB8
:1050B0000551140807E248EC1DF000C04EF6E3EC81
:1050C0001FF0056B0DD04E510E0A08E0CA0E4C259C
:1050D000E16E050E4D21E26E4EC6E6FF4C4B4D2BA8
:1050E000020E0B6E450E0C6EA90E0D6E0D2EFED728
:1050F0000C2EFCD70B2EFAD7000000004E510E0AE2
:10510000CBE14C6B4D6B216A226A236A246A05014C
:10511000D36BCA51310A4AE1CB51CA25006E016AEC
:10512000000E0122CC510026000E0122CD51002696
:10513000000E0122CE510026000E0122CF51002682
:10514000000E0122D0510026000E0122D15100266E
:10515000000E0122020E046E000E056EC7EC1EF05A
:1051600008C000F009C001F0300E0024026E000EED
:105170000120036E000E031803E10501D25102184D
:1051800015E1CBC51CF6CCC51DF6CDC51EF6CEC5AA
:105190001FF60601206BCFC524F62E0E256FD0C555
:1051A00026F6D1C527F6286B808A808810EC20F07F
:0651B000C4EF21F0FFD75F
:105BE40010EE15F04F0E006E010E016EEB0EF66E08
:0E5BF400590EF76E000EF86E01EC20F0120054
:1051B6003C68746D6C3E0A3C686561643E0A3C74EA
:1051C60061626C6520616C69676E3D2263656E7411
:1051D6006572223E3C74723E3C74643E3C7363725C
:1051E60069707420747970653D22746578742F6ACD
:1051F600617661736372697074220A7372633D2209
:10520600687474703A2F2F7777772E64696C656DA2
:10521600616C74642E636F6D2F646579616E2D6C9D
:105226006576736B692F647967726170682D636F39
:105236006D62696E65642E6A73223E3C2F736372DB
:105246006970743E0A3C2F686561643E0A3C626F71
:1052560064793E0A3C63656E7465723E3C68343E12
:105266004461696C79204169722C20536F696C2006
:1052760054656D7065726174757265205B435D205F
:10528600616E64204169722048756D69646974793C
:10529600205B255D3C2F68343E3C2F63656E74654C
:1052A600723E3C6469762069643D2267726170686B
:1052B600646976227374796C653D227769647468D3
:1052C6003A38303070783B206865696768743A34DC
:1052D600303070783B223E3C2F6469763E0A3C7340
:1052E600637269707420747970653D227465787490
:1052F6002F6A617661736372697074223E0A672051
:105306003D206E6577204479677261706828202099
:105316000A646F63756D656E742E676574456C659A
:105326006D656E744279496428226772617068649B
:10533600697622292C22782E637376222C0A7B0A20
:105346006C6162656C733A205B2027446174652743
:105356002C202741697254656D70272C2027536FC6
:10536600696C54656D70272C202748756D696469D2
:10537600747927205D2C202020202020202020202A
:1053860020202741697254656D70273A207B2020C2
:1053960020202020202020202020202061786973D2
:1053A6003A207B2020202020202020202020202082
:1053B600207D2020202020202020202020207D2C21
:1053C60020202020202020202020202027536F6905
:1053D6006C54656D70273A207B20202020202020E9
:1053E60020202020202020617869733A20274169F7
:1053F6007254656D70272020202020202020202038
:1054060020207D2C2020202020202020202020202D
:10541600617865733A207B202020202020202020E0
:10542600202020202048756D69646974793A207BB4
:105436002020202020202020202020202020202066
:105446006C6162656C734B4D423A207472756520CF
:10545600202020202020202020202020207D2020E9
:10546600202020202020202020207D2020202020D9
:1054760020202020207D293B0A3C2F73637269700F
:10548600743E0A3C63656E7465723E3C68343E4306
:105496006F707972696768742032303131202D203F
:1054A600456E672E20446579616E204C6576736B78
:1054B600693C2F68343E3C2F63656E7465723E3CD2
:0F54C6002F626F64793E0A3C2F68746D6C3E0054
:1054D5003C68746D6C3E3C686561643E3C6D65740A
:1054E5006120687474702D65717569763D22436F0E
:1054F5006E74656E742D547970652220636F6E74B9
:10550500656E743D22746578742F68746D6C3B20EC
:10551500636861727365743D7574662D3822202F3A
:105525003E3C6D65746120687474702D6571756994
:10553500763D22726566726573682220636F6E74AC
:10554500656E743D223130223E3C2F686561643EB4
:105555003C626F64793E3C73637269707420737248
:10556500633D2F733E3C2F7363726970743E3C73C9
:1055750063726970743E66756E6374696F6E2077C9
:10558500287829207B646F63756D656E742E77723C
:105595006974652878293B7D3C2F73637269707443
:1055A5003E3C43454E5445523E3C68313E41757440
:1055B5006F6D617469632057656174686572205306
:1055C500746174696F6E202D204C41543A20343338
:1055D5002E3830353630364E2C204C4F4E3A203250
:1055E500352E393333383638453C2F68313E3C70DB
:1055F5003E3C6120687265663D673E3234682053E3
:10560500746174733C2F613E202D2D2D20203C614B
:1056150020687265663D783E435356205061676544
:105625003C2F613E3C703E266E6273703B3C2F7092
:105635003E3C7461626C6520626F726465723D22E6
:1056450039223E3C74723E3C74643E54656D70650F
:105655007261747572653A3C2F74643E3C74643EA5
:105665003C7363726970743E646F63756D656E74C7
:105675002E7772697465284D4E532C5457312C542E
:1056850057322C272E272C54462C544631293C2F93
:0F5695007363726970743E20433C2F74643E004F
:1056A4003C74643E57696E642053706565643A3C8B
:1056B4002F74643E3C74643E3C7363726970743E40
:1056C40077285753293C2F7363726970743E206D99
:1056D4002F733C2F74643E3C74643E57696E64209F
:1056E400446972656374696F6E3A3C2F74643E3C1E
:1056F40074643E3C7363726970743E77285744291E
:105704003C2F7363726970743E3C2F74643E3C7426
:10571400643E48756D69646974793A3C2F74643EDB
:105724003C74643E3C7363726970743E77285248DB
:10573400293C2F7363726970743E20253C2F746476
:105744003E3C2F74723E3C74723E3C74643E507214
:105754006573737572653A3C2F74643E3C74643EA1
:105764003C7363726970743E77284250293C2F73EE
:1057740063726970743E206850613C2F74643E3CCF
:1057840074643E536F696C2054656D706572617406
:105794007572653A3C2F74643E3C74643E3C73639A
:1057A400726970743E646F63756D656E742E777282
:1057B400697465284D4E53322C5354293C2F73631E
:1057C400726970743E20433C2F74643E3C74643EA2
:1057D400536F6C617220526164696174696F6E3ACF
:1057E4003C2F74643E3C74643E3C73637269707411
:1057F4003E7728414E33293C2F7363726970743E9F
:1058040020572F6D3C5355503E323C2F5355503E3C
:105814003C2F74643E3C74643E4261636B67726FF8
:10582400756E6420526164696F616374697669742A
:10583400793A3C2F74643E3C74643E3C73637269F1
:1058440070743E772852414432293C2F7363726945
:1058540070743E207553762F683C2F74643E3C2F41
:0458640074723E001C
:105868003C74723E3C74643E44657720506F696EA8
:10587800743A3C2F74643E3C74643E3C73637269B2
:1058880070743E77285444293C2F7363726970748E
:105898003E20433C2F74643E3C74643E486561740A
:1058A80020496E6465783A3C2F74643E3C74643ECB
:1058B8003C7363726970743E77284450293C2F7397
:1058C80063726970743E20433C2F74643E3C746478
:1058D8003E54696D653A3C2F74643E3C74643E3CAA
:1058E8007363726970743E646F63756D656E742E50
:1058F80077726974652848522C272D272C4D4E2C19
:10590800272D272C5343293C2F7363726970743EEB
:105918003C2F74643E3C74643E446174653A3C2F89
:1059280074643E3C74643E3C7363726970743E6494
:105938006F63756D656E742E777269746528445946
:105948002C272D272C4D482C272D323031272C5928
:1059580052293C2F7363726970743E3C2F74643E05
:105968003C2F74723E3C2F7461626C653E3C703E05
:10597800266E6273703B3C2F703E3C2F63656E74DD
:1059880065723E3C48523E436F707972696768742D
:105998002032303131202D2044696C656D61204CF6
:1059A80074642E202D20456E672E20446579616E23
:1059B800204C6576736B692C20537265646E612088
:1059C8004B756C612C20527573652C2042554C47E1
:1059D800415249413C2F626F64793E3C2F68746D97
:0359E8006C3E0012
:0359EB00B65100B2
:0359EE00D554008D
:0359F100A45600B9
:0359F400685800F0
:0459F70000000000AC
:0259FB000000AA
:0459FD0000000000A6
:045A010000000000A1
